:1000000009308A0086290000D424CD223A1000004D
:10001000201020100001C420D4223A10000120102A
:1000200020100000201020100001201020100000DF
:10003000C82ACD24C424D42C3A10A53AAC12751089
:10004000201020102000D4224D284529412A55296E
:10005000451DA0127516A53A0000A021CC27C32586
:10006000202643222000A0294F27A015202AD22491
:100070004E24A015202BC922541000012029C52090
:10008000C424CE232022482AB1182E172E10000196
:10009000202AC92645293A102010201020102010AF
:1000A000201020100001201020100001201020102E
:1000B00020102010000120102010201020102010EF
:1000C00020102010201020102010000120102010DF
:1000D00020102010201020102010201020102010A0
:1000E00000012010201000012010201020102010EE
:1000F0008000A029452AA021CC27C3252000611813
:100100008328081284280816831608128312E1181F
:100110008B2887138C288717A01320088316870045
:1001200083126119952807139628071720132008B2
:10013000831687008312E1199F288712A02887164B
:10014000A0122008831687008312080068308400FC
:10015000831300080319BD280630F800BF30F700EC
:100160006400F70BB028F80BAE287A30F700F70BD5
:10017000B728BA286400800BAC28080083168812C0
:100180008312881664000430F700F70BC5280000BE
:1001900083168812831288120330E800A620080014
:1001A000E00E6008E1007F20BE20E00E6008E10064
:1001B0007F20BE200800E1017F20C830E800A62093
:1001C00083160813831208130330E1007F20BE203A
:1001D000BE20BE200230E1007F20BE202C30E00097
:1001E000D0200C30E000D0200630E000D0200130DC
:1001F000E000D0208A150A12CE2994138C115E08D3
:1002000093000230941B0B29831614190529003022
:10021000111B01308312F800080014138316911586
:100220009119102977189112771C91161116111A2D
:10023000172983121308F8000800831611141118E7
:100240001F29D0308312DE00FD20DE01FD20831641
:10025000911491182929D1308312DE00FD20F70175
:100260000D217808D800831611151119352983122C
:100270005808803903194E29D81383161114111800
:100280003F298312DE01FD20DE01FD205808DE003B
:10029000FD208316111511194B2983128A150A1294
:1002A000D12983160813831208175F08E000D020B5
:1002B000831608138312081308000B08DC008B1345
:1002C000831603178C170C1400000000831203130D
:1002D000DC1B8B1703170C087F390319B129031393
:1002E000DC0003170D080313DD0003170F080313C9
:1002F000DE005C08DF0051215D0803178D00031349
:100300005E0803178F0003130B08DF008B1383169F
:1003100003178C170C140000000083120313DF1B5B
:100320008B1703170C0D0E0D7F390319B129031319
:10033000DC0003170D080313DD0003170F08031378
:10034000DE005C08DF0051215D0803178D000313F8
:100350005E0803178F008D0A03198F0A03135D29A6
:10036000031703130800593084008313000803198E
:10037000C6290630F800F701F70BBC29F80BBB299A
:100380007B30F700F70BC229800BB92908005C0805
:10039000F8015B020318CF295B08F700DB29F7019E
:1003A0000830DD00DB0DF70D5C0877020318F7005D
:1003B000F80DDD0BD2290800831611141118DE295F
:1003C000D0308312DE00FD20DE01FD208316911463
:1003D0009118E829D1308312DE00FD205C08FA0074
:1003E0005B08840083135C1883170130F7000D212C
:1003F0007808800001305B07F8005C08FA000318F9
:10040000FA0A7808840083137A1883170130F700FA
:100410000D217808800002305B07F8005C08FA00C4
:100420000318FA0A7808840083137A1883170130B6
:10043000F7000D217808800003305B07F8005C08A6
:10044000FA000318FA0A7808840083137A188317CD
:100450000130F7000D217808800004305B07F800B8
:100460005C08FA000318FA0A7808840083137A18E3
:1004700083170130F7000D217808800005305B07F5
:10048000F8005C08FA000318FA0A7808840083135D
:100490007A1883170130F7000D21780880000630A4
:1004A0005B07F8005C08FA000318FA0A7808840071
:1004B00083137A188317F7010D21780880008316BB
:1004C00011151119612A831208002E0EA1000F3098
:1004D000A1052E080F39A2002F0EA3000F30A3058F
:1004E0002F080F39A400300EA5000F30A5053008E5
:1004F0000F39A6003108A700320EA8000F30A8055A
:1005000032080F39A900330EAA000F30AA053308AC
:100510000F39AB00340EAC000F30AC0534080F3986
:10052000AD0008008030E000D020043003178D00BB
:1005300000308F0003135D215B0BA52A5F30DF00C5
:1005400051215F30DF005121AF2A30302507DC0018
:10055000DF00512130302607DC00DF0051213A3026
:10056000DF0051215B08023C031DBD2A5F30DF0024
:1005700051215F30DF005121C72A30302307DC00D2
:10058000DF00512130302407DC00DF0051213A30F8
:10059000DF0051215B08033C031DD52A5F30DF00DB
:1005A00051215F30DF005121DF2A30302107DC008C
:1005B000DF00512130302207DC00DF0051210830FC
:1005C00003178D0000308F0003135D21C030E00061
:1005D000D0200B3003178D0000308F0003135D21F6
:1005E0005B08043C031DFB2A5F30DF0051215F30B4
:1005F000DF005121052B30302807DC00DF005121BE
:1006000030302907DC00DF0051212F30DF0051217D
:100610005B08053C031D132B5F30DF0051215F3069
:10062000DF0051211D2B30302A07DC00DF00512173
:1006300030302B07DC00DF0051212F30DF0051214B
:100640003230DF0051213030DF0051215B08063CA1
:10065000031D312B5F30DF0051215F30DF0051215E
:100660003B2B30302C07DC00DF00512130302D07D0
:10067000DC00DF0051210F3003178D0000308F00A8
:1006800003135D210800550884008313561883174F
:100690005C088000840A8001D50A0319D60A080084
:1006A0000B08D9008B13831603178C170C1400004A
:1006B000000083120313D91B8B170318872B031712
:1006C0000C087F390313D90003170D080313DA0050
:1006D00003170F080313DB005908DC0043235A08F3
:1006E00003178D0003135B0803178F0003130B0818
:1006F000DC008B13831603178C170C14000000000A
:1007000083120313DC1B8B17D80B872BA62B031725
:100710000C0D0E0D7F390313D90003170D080313B9
:10072000DA0003170F080313DB005908DC0043232A
:100730005A0803178D0003135B0803178F008D0AF7
:1007400003198F0A03100313D80B502B08007808E5
:100750005808DB006430DC00C7217708D80078082F
:100760003030031DBA2BD91CC12BD919C12B591AF2
:100770002030BD2BD91159125914F8077808DC0024
:1007800043235808DB000A30DC00C7217708D80073
:1007900078083030031DD22BD919D62B591CD62BF3
:1007A000591A2030F8077808DC0043233030D80786
:1007B0005808DC004323080080080319F12BD901F5
:1007C0000408D8005910831B59140008DF00512178
:1007D00058088400831359188317840A0319850A5B
:1007E000DC2B0800D801D901DA01DB01DC0183161A
:1007F00006108312061464006330F700F70BFE2B1B
:10080000000006101930E800A6200614831606140E
:1008100064006330F700F70B0B2C00008312061CFA
:10082000152C0030F800682C172C061C152C6400C1
:100830006330F700F70B1A2C00000618232C003049
:10084000F800682C252C0618232CDE015E08043CD9
:10085000031C522CDD015D08073C031C502C061CB8
:100860002F2C64005230F700F70B342C372C061C69
:100870004E2C58305E07840083135D08073CF80057
:100880000130F700F8080319492C0310F70DF80B95
:10089000452C77080004800006184C2CDD0A2B2C10
:1008A000DE0A262C590858075A075B07DF005C0848
:1008B0005F0203195E2C0030F800682C5A08BD0056
:1008C0005B08BE005808BF005908C0000130F8009E
:1008D000F8080319B72CD6014130D500183003179A
:1008E0008D0000308F0003100A300313D80050230E
:1008F0003F08D8001B30D900A7232C30DC0043234D
:100900004008D8001B30D900A7231F3003178D00E3
:1009100000308F00031406300313D80050239430A6
:10092000E000D020413084008313DC23D601413025
:10093000D500233003178D0000308F0003100D30D9
:100940000313D80050233D08D8001B30D900A7233B
:100950002C30DC0043233E08D8001B30D900A723ED
:10096000D430E000D020413084008313DC230230F7
:10097000D800FA30D900B321D80BB92C8A150A1245
:100980007B2BF701F8015B0803105C18F707F70CE5
:10099000F80CDC18F707F70CF80C5C19F707F70CE4
:1009A000F80CDC19F707F70CF80C5C1AF707F70CD2
:1009B000F80CDC1AF707F70CF80C5C1BF707F70CC0
:1009C000F80CDC1BF707F70CF80C08000130D80016
:1009D000D901DC012E30DB00DC2165225908043C02
:1009E000031CF52CDB019222F82C5808DB00922224
:1009F000D90A5908093C031CD901831685158312AD
:100A00008519C42D831685158312851D022DD901E4
:100A100001305802FA3E0318C42D063E542F250813
:100A2000DB000A30DC00C12426087807DA005A0807
:100A3000163C031C1D2DDA0A1E2DDA015A08DB00B4
:100A40000A30DC00C7217808A5005A08DB000A300C
:100A5000DC00C7217708A600C42D2308DB000A307C
:100A6000DC00C12424087807DA005A083A3C031C49
:100A70003B2DDA0A3C2DDA015A08DB000A30DC0093
:100A8000C7217808A3005A08DB000A30DC00C72120
:100A90007708A400C42D2108DB000A30DC00C12443
:100AA00022087807DA005A083A3C031C592DDA0A62
:100AB0005A2DDA015A08DB000A30DC00C721780819
:100AC000A1005A08DB000A30DC00C7217708A20029
:100AD000C42D2808DB000A30DC00C124290878076F
:100AE000DA005A081E3C031C772DDA0A792D0130F2
:100AF000DA005A08DB000A30DC00C7217808A800B9
:100B00005A08DB000A30DC00C7217708A900C42D91
:100B10002A08DB000A30DC00C1242B087807DA0041
:100B20005A080B3C031C962DDA0A982D0130DA0086
:100B30005A08DB000A30DC00C7217808AA005A08EE
:100B4000DB000A30DC00C7217708AB00C42D2C087D
:100B5000DB000A30DC00C1242D087807DA005A08CF
:100B6000623C031CB52DDA0AB62DDA015A08DB0007
:100B70000A30DC00C7217808AC005A08DB000A30D4
:100B8000DC00C7217708AD0083160515831205190F
:100B90008B2E831605158312051DC92DD901013031
:100BA0005802FA3E03188B2E063E5E2F2508DB0006
:100BB0000A30DC00C12426087807DA00DA080319B5
:100BC000E32DDA03E52D1730DA005A08DB000A308E
:100BD000DC00C7217808A5005A08DB000A30DC00D9
:100BE000C7217708A6008B2E2308DB000A30DC0023
:100BF000C12424087807DA00DA080319012EDA0381
:100C0000032E3B30DA005A08DB000A30DC00C72133
:100C10007808A3005A08DB000A30DC00C7217708F7
:100C2000A4008B2E2108DB000A30DC00C12422083E
:100C30007807DA00DA0803191F2EDA03212E3B3079
:100C4000DA005A08DB000A30DC00C7217808A1006E
:100C50005A08DB000A30DC00C7217708A2008B2E7F
:100C60002808DB000A30DC00C12429087807DA00F4
:100C70005A08013C03183E2EDA03402E1F30DA00DA
:100C80005A08DB000A30DC00C7217808A8005A089F
:100C9000DB000A30DC00C7217708A9008B2E2A0868
:100CA000DB000A30DC00C1242B087807DA005A0880
:100CB000013C03185D2EDA035F2E0C30DA005A086F
:100CC000DB000A30DC00C7217808AA005A08DB00E4
:100CD0000A30DC00C7217708AB008B2E2C08DB0024
:100CE0000A30DC00C1242D087807DA00DA0803197D
:100CF0007B2EDA037D2E6330DA005A08DB000A30DF
:100D0000DC00C7217808AC005A08DB000A30DC00A0
:100D1000C7217708AD00831605168312051A9C2E8D
:100D2000831605168312051E902E0530D900D80AA9
:100D30005808063C031CA82E8316851483128518B8
:100D4000A72E831685148312851CA12EA82EEE2CA7
:100D5000210EF700F030F70577082204AE00230ECD
:100D6000F700F030F70577082404AF00250EF700F0
:100D7000F030F70577082604B0002708B100280EE8
:100D8000F700F030F70577082904B2002A0EF700C3
:100D9000F030F70577082B04B3002C0EF700F03085
:100DA000F70577082D04B400DC012E30DB00831634
:100DB00011141118D92ED0308312DE00FD20DE016F
:100DC000FD205C08FA005B08840083135C1883171D
:100DD0000008DD00DE00FD2001305B07F8005C0844
:100DE000FA000318FA0A7808840083137A18831724
:100DF0000008DD00DE00FD2002305B07F8005C0823
:100E0000FA000318FA0A7808840083137A18831703
:100E10000008DD00DE00FD2003305B07F8005C0801
:100E2000FA000318FA0A7808840083137A188317E3
:100E30000008DD00DE00FD2004305B07F8005C08E0
:100E4000FA000318FA0A7808840083137A188317C3
:100E50000008DD00DE00FD2005305B07F8005C08BF
:100E6000FA000318FA0A7808840083137A188317A3
:100E70000008DD00DE00FD2006305B07F8005C089E
:100E8000FA000318FA0A7808840083137A18831783
:100E90000008DD00DE00FD208316111511194E2F0C
:100EA00083128A150A12F42B0A148A140A1582076F
:100EB0000F2D2D2D4B2D692D882DA72D0A148A1449
:100EC0000A158207D62DF42D122E302E4F2E6E2E9F
:10100000C030E0008A11D0208A15123003178D00FD
:1010100000308F008A1103135D218A155A0B1B289B
:101020005F30DF008A1151218A155F30DF008A119D
:1010300051218A1537283508DB000A30DC008A1177
:10104000C7218A1530307807DB00DF008A11512173
:101050008A153508DB000A30DC008A11C7218A15A1
:1010600030307707DB00DF008A1151218A153A30D2
:10107000DF008A1151218A155A08023C031D4B28B2
:101080005F30DF008A1151218A155F30DF008A113D
:1010900051218A1567283608DB000A30DC008A11E6
:1010A000C7218A1530307807DB00DF008A11512113
:1010B0008A153608DB000A30DC008A11C7218A1540
:1010C00030307707DB00DF008A1151218A153A3072
:1010D000DF008A1151218A155A08033C031D7B2821
:1010E0005F30DF008A1151218A155F30DF008A11DD
:1010F00051218A1597283708DB000A30DC008A1155
:10110000C7218A1530307807DB00DF008A115121B2
:101110008A153708DB000A30DC008A11C7218A15DE
:1011200030307707DB00DF008A1151218A15153036
:1011300003178D0000308F008A1103135D218A157B
:101140000B08F7008B13013003178D0003133508CC
:1011500003178C0083168C130C1555308D00AA30A4
:101160008D008C148C18B2280C117708831203138D
:101170008B040B08F7008B13023003178D00031349
:10118000360803178C0083168C130C1555308D0010
:10119000AA308D008C148C18CB280C117708831280
:1011A00003138B040B08F7008B13033003178D0018
:1011B0000313370803178C0083168C130C15553056
:1011C0008D00AA308D008C148C18E4280C1177083F
:1011D000831203138B0408000130D800D90180303A
:1011E000E0008A11D0208A15793003178D00003075
:1011F0008F008A1103135D218A155908043C031CD2
:101200000429DA01002007295808DA000020D90A49
:101210005908093C031CD9018316851583128519C9
:101220003929831685158312851D1129D90158087E
:10123000013A03192229033A03192A29013A031909
:10124000322939293508163C031C2829B50A2929D1
:10125000B501392936083A3C031C3029B60A312930
:10126000B601392937083A3C031C3829B70A39290D
:10127000B70183160515831205196629831605150E
:101280008312051D3E29D9015808013A03194F2937
:10129000033A03195729013A03195F296629B5084A
:1012A00003195429B50356291730B5006629B60825
:1012B00003195C29B6035E293B30B6006629B708DE
:1012C00003196429B70366293B30B70083168514D8
:1012D000831285187729831685148312851C6B2940
:1012E0000530D900D80A5808033C031C832983160B
:1012F00005168312051A8229831605168312051E08
:101300007C298329FD288A150A120A2C03081F3913
:101310008300FF30A000A0152008831687008312E9
:1013200020162008831687000C3093002830831283
:1013300094008316941314138312B501B601B701F8
:10134000B801B901BA01BB01BC01D601D5018316B0
:101350001F149F141F159F1107309C008313051045
:1013600083120514B53090008E010B308F00DC30F5
:101370008E000000201120088316870083120711B9
:101380000C3097000030F80006389200FF308316CA
:1013900092008312910195018A11DB288A158A1126
:1013A0001D298A158030E0008A11D0208A152D3041
:1013B00003178D0000308F008A1103135D218A15F9
:1013C000C030E0008A11D0208A15333003178D0019
:1013D00000308F008A1103135D218A159430E000DC
:1013E0008A11D0208A150430D800FA30D9008A1129
:1013F000B3218A15D80BF5293E3003178D00003034
:101400008F008A1103135D218A150C30D800FA3041
:10141000D9008A11B3218A15D80B072AB801B9015E
:10142000BA01061A4E2BBB018E010B308F00DC3047
:101430008E0000008030E0008A11D0208A154830EC
:1014400003178D0000308F008A1103135D218A1568
:10145000C030E0008A11D0208A15533003178D0068
:1014600000308F008A1103135D218A153808DB00D4
:101470000A30DC008A11C7218A1530307807D8007D
:10148000DF008A1151218A153808DB000A30DC00A0
:101490008A11C7218A1530307707D800DF008A11FA
:1014A00051218A153A30DF008A1151218A153908F5
:1014B000DB000A30DC008A11C7218A15303078073A
:1014C000D800DF008A1151218A153908DB000A3063
:1014D000DC008A11C7218A1530307707D800DF0079
:1014E0008A1151218A153A30DF008A1151218A155B
:1014F0003A08DB000A30DC008A11C7218A15303037
:101500007807D800DF008A1151218A153A08DB00DC
:101510000A30DC008A11C7218A1530307707D800DD
:10152000DF008A1151218A15563003178D000030D3
:101530008F008A1103135D218A159430E0008A110F
:10154000D0208A155B3003178D0000308F008A1180
:1015500003135D218A15D430E0008A11D0208A154A
:10156000663003178D0000308F008A1103135D2150
:101570008A15061A4E2B0C1C4D2B0C10BB0A8E0123
:101580000B308F00DC308E000000C030E0008A118C
:10159000D0208A15713003178D0000308F008A111A
:1015A00003135D218A153808DB000A30DC008A113C
:1015B000C7218A1530307807D800DF008A11512101
:1015C0008A153808DB000A30DC008A11C7218A1529
:1015D00030307707D800DF008A1151218A153A3060
:1015E000DF008A1151218A153908DB000A30DC003E
:1015F0008A11C7218A1530307807D800DF008A1198
:1016000051218A153908DB000A30DC008A11C72114
:101610008A1530307707D800DF008A1151218A15EA
:101620003A30DF008A1151218A153A08DB000A306E
:10163000DC008A11C7218A1530307807D800DF0016
:101640008A1151218A153A08DB000A30DC008A1120
:10165000C7218A1530307707D800DF008A11512161
:101660008A15743003178D0000308F008A11031320
:101670005D218A153B080A3C031D4D2BBA0A3A0826
:101680003C3C031D4C2BBA01B90A3C30B900B908E7
:1016900003194C2BB901B80ABB01B92A0130031751
:1016A0008D0083168C130C1483120C080313B500E1
:1016B000023003178D0083168C130C1483120C0850
:1016C0000313B600033003178D0083168C130C141C
:1016D00083120C080313B700DC012E30DB008A11E3
:1016E000DC218A158A1165228A15DB018A11922272
:1016F0008A158A11F22B8A15220857020319E82B42
:101700002208D7002508DB000A30DC008A11C1243A
:101710008A1526087807153C03189A2B2508DB0044
:101720000A30DC008A11C1248A1526087807053C96
:1017300003189F2B7D3095001708CF399700250897
:10174000DB000A30DC008A11C1248A1526087807DC
:101750003502031DCB2B2308DB000A30DC008A1185
:10176000C1248A15240878073602031DCB2B2108D3
:10177000DB000A30DC008A11C1248A1522087807B0
:101780003702031DCB2B20102008831687008312FD
:1017900007140130BC002508DB000A30DC008A1188
:1017A000C1248A1526087807153C031CE32B25085D
:1017B000DB000A30DC008A11C1248A15260878076C
:1017C000053C031CE82BFA3095001708CF39970029
:1017D000831605168312051AF52B83160516831238
:1017E000051EED2B8A11E62C8A15831685148312AB
:1017F00085180A2C831685148312851CFA2B3C0B42
:10180000092C201020088316870083120710BC01C2
:081810000A2CEC280E2A6300EB
:02400E00323F3F
:00000001FF
;PIC16F877A
;CRC=9BBB  CREATED="22-Jun-22 19:17"
